:1000000020C03AC039C038C037C0E0C035C034C0A5
:1000100033C032C031C030C02FC02EC02DC001024D
:100020000000040001020408102002020202020281
:100030000000000036000000000038000000000052
:10004000370011241FBECFE5D2E0DEBFCDBF10E0E8
:10005000A0E6B0E0ECE1F5E002C005900D92A0361C
:10006000B107D9F720E0A0E6B0E001C01D92A037AB
:10007000B207E1F796D050C2C3CF62E080E080D1F2
:1000800061E081E07DD161E083E07AD161E084E0EC
:1000900077D1E6D06093630070936400809365002D
:1000A0009093660008950F931F93DAD00091630038
:1000B000109164002091650030916600601B710B07
:1000C000820B930B643671058105910590F0809148
:1000D000610090916200009779F0019709F457C090
:1000E000BFD0609363007093640080936500909329
:1000F00066001F910F91089580E0D3D18111F0CF58
:100100008091600081113DC061E084E088D16AE0A7
:1001100070E080E090E0D7D060E084E080D16AE0D9
:1001200070E080E090E0CFD061E084E078D16AE0D8
:1001300070E080E090E0C7D060E084E070D16EE1D4
:1001400070E080E090E0BFD061E084E068D16AE0D8
:1001500070E080E090E0B7D060E084E060D16EE1D4
:1001600070E080E090E0AFD061E084E058D181E0C1
:100170008093600081E090E0909362008093610042
:10018000AFCF60E084E04BD110926000F3CF80E00D
:1001900088D1813009F0A4CF1092620010926100E2
:1001A0009FCF81B781BFB4D068DF7DDFFECF80B73E
:1001B000807F80BF80B7806880BF8CB580648CBD35
:1001C0008FEF8DBD80B7876080BF08951F920F921B
:1001D0000FB60F9211242F933F938F939F93AF935A
:1001E000BF938091680090916900A0916A00B091DE
:1001F0006B003091670026E0230F2D3768F129E866
:10020000230F0396A11DB11D209367008093680002
:1002100090936900A0936A00B0936B0080916C008A
:1002200090916D00A0916E00B0916F000196A11D9C
:10023000B11D80936C0090936D00A0936E00B093FD
:100240006F00BF91AF919F918F913F912F910F9030
:100250000FBE0F901F9018950296A11DB11DD4CF0F
:100260002FB7F894609168007091690080916A00DE
:1002700090916B002FBF08953FB7F89480916C0068
:1002800090916D00A0916E00B0916F0022B708B6FA
:1002900001FE05C02F3F19F00196A11DB11D3FBF02
:1002A000BA2FA92F982F8827BC01CD01620F711D8D
:1002B000811D911D43E0660F771F881F991F4A9586
:1002C000D1F708950895CF92DF92EF92FF92CF93E6
:1002D000DF936B017C01D0DFEB01C114D104E10499
:1002E000F10439F4DF91CF91FF90EF90DF90CF9040
:1002F0000895E8DFC1DF6C1B7D0B683E734068F337
:1003000081E0C81AD108E108F108C851DC4FF2CFEA
:100310008AB582608ABD8AB581608ABD83B7887FCD
:10032000836083BF789489B7826089BF40DF86B1DC
:100330008877866886B9379A0895813039F48AB506
:100340008F778ABD8AB58F7B8ABD0895823031F45C
:100350008AB58F7D8ABD8AB58F7EF6CF833039F41A
:1003600080B78F7D80BF80B78F7E80BF0895843037
:1003700031F48CB58F7D8CBD8CB58F7E8CBD08958E
:10038000CF93DF9387FF09C08F7771F1813071F1CF
:10039000823071F1833071F18FEF90E0FC01EC5D00
:1003A000FF4F2491865D9F4FFC0184918823C9F003
:1003B00090E0880F991FFC01E45CFF4FA591B49178
:1003C000FC01EA5CFF4FC591D491611115C09FB744
:1003D000F8948C91209582238C93888128232883FC
:1003E0009FBFDF91CF91089585E0D7CF82E0D5CF31
:1003F00084E0D3CF83E0D1CF623051F49FB7F8943B
:100400003C91822F809583238C93E8812E2BE7CF1C
:100410008FB7F894EC912E2B2C938FBFE2CF1F93C4
:10042000CF93DF93162F87FF09C08F7771F181304B
:1004300071F1823071F1833071F18FEF282F30E04C
:10044000F901E25EFF4F8491F901EC5DFF4FD49119
:10045000F901E65DFF4FC491CC2399F081116DDF66
:10046000EC2FF0E0EE0FFF1FEA5CFF4FA591B49177
:100470008FB7111112C0F894EC91D095DE23DC9364
:100480008FBFDF91CF911F91089585E0D7CF82E094
:10049000D5CF84E0D3CF83E0D1CFF894EC91DE2B9D
:1004A000EECFCF93DF9387FF09C08F7751F1813073
:1004B00051F1823051F1833051F18FEF282F30E02C
:1004C000F901E25EFF4F8491F901EC5DFF4FD49199
:1004D000F901E65DFF4FC491CC23D9F081112DDFE6
:1004E000EC2FF0E0EE0FFF1FE05DFF4FA591B49100
:1004F000EC91ED2381E090E009F480E0DF91CF9171
:10050000089585E0DBCF82E0D9CF84E0D7CF83E0C8
:0C051000D5CF80E090E0F2CFF894FFCF50
:00000001FF
